:1000000019C020C01FC01EC01DC01CC01BC01AC00C
:1000100019C018C017C016C015C014C013C012C034
:1000200011C010C00FC00EC00DC00CC00BC00AC064
:1000300009C008C011241FBECFEFCDBFDFE3DEBF74
:1000400002D02EC0DDCF88ED90E084BF9093610098
:10005000069A079A92E09093810A41E050E040931B
:10006000A80A5093A90A26E130E02093AA0A309307
:10007000AB0A4093AC0A5093AD0A2093AE0A30937A
:10008000AF0A84BF80E38093920A80918E0A80FF3A
:10009000FCCF81E08093800A809350008895FECF4A
:0400A000F894FFCF02
:00000001FF
